{
  "_format": "hh-sol-artifact-1",
  "contractName": "FreelanceEscrow",
  "sourceName": "contracts/FreelanceEscrow.sol",
  "abi": [
    {
      "inputs": [],
      "stateMutability": "nonpayable",
      "type": "constructor"
    },
    {
      "anonymous": false,
      "inputs": [
        {
          "indexed": true,
          "internalType": "string",
          "name": "jobId",
          "type": "string"
        },
        {
          "indexed": true,
          "internalType": "address",
          "name": "client",
          "type": "address"
        },
        {
          "indexed": false,
          "internalType": "uint256",
          "name": "refunded",
          "type": "uint256"
        }
      ],
      "name": "DisputeResolved",
      "type": "event"
    },
    {
      "anonymous": false,
      "inputs": [
        {
          "indexed": false,
          "internalType": "uint256",
          "name": "oldFee",
          "type": "uint256"
        },
        {
          "indexed": false,
          "internalType": "uint256",
          "name": "newFee",
          "type": "uint256"
        }
      ],
      "name": "FeeUpdated",
      "type": "event"
    },
    {
      "anonymous": false,
      "inputs": [
        {
          "indexed": true,
          "internalType": "string",
          "name": "jobId",
          "type": "string"
        },
        {
          "indexed": true,
          "internalType": "address",
          "name": "client",
          "type": "address"
        },
        {
          "indexed": false,
          "internalType": "uint256",
          "name": "refunded",
          "type": "uint256"
        }
      ],
      "name": "JobCancelled",
      "type": "event"
    },
    {
      "anonymous": false,
      "inputs": [
        {
          "indexed": true,
          "internalType": "string",
          "name": "jobId",
          "type": "string"
        },
        {
          "indexed": true,
          "internalType": "address",
          "name": "freelancer",
          "type": "address"
        },
        {
          "indexed": false,
          "internalType": "uint256",
          "name": "amountPaid",
          "type": "uint256"
        },
        {
          "indexed": false,
          "internalType": "uint256",
          "name": "fee",
          "type": "uint256"
        }
      ],
      "name": "JobCompleted",
      "type": "event"
    },
    {
      "anonymous": false,
      "inputs": [
        {
          "indexed": true,
          "internalType": "string",
          "name": "jobId",
          "type": "string"
        },
        {
          "indexed": true,
          "internalType": "address",
          "name": "client",
          "type": "address"
        },
        {
          "indexed": true,
          "internalType": "address",
          "name": "freelancer",
          "type": "address"
        },
        {
          "indexed": false,
          "internalType": "uint256",
          "name": "amount",
          "type": "uint256"
        },
        {
          "indexed": false,
          "internalType": "uint256",
          "name": "deadline",
          "type": "uint256"
        }
      ],
      "name": "JobFunded",
      "type": "event"
    },
    {
      "anonymous": false,
      "inputs": [
        {
          "indexed": true,
          "internalType": "address",
          "name": "freelancer",
          "type": "address"
        },
        {
          "indexed": false,
          "internalType": "uint256",
          "name": "points",
          "type": "uint256"
        },
        {
          "indexed": false,
          "internalType": "uint256",
          "name": "totalPoints",
          "type": "uint256"
        }
      ],
      "name": "ReputationEarned",
      "type": "event"
    },
    {
      "stateMutability": "payable",
      "type": "fallback"
    },
    {
      "inputs": [
        {
          "internalType": "string",
          "name": "jobId",
          "type": "string"
        }
      ],
      "name": "approveDelivery",
      "outputs": [],
      "stateMutability": "nonpayable",
      "type": "function"
    },
    {
      "inputs": [
        {
          "internalType": "string",
          "name": "jobId",
          "type": "string"
        }
      ],
      "name": "cancelJob",
      "outputs": [],
      "stateMutability": "nonpayable",
      "type": "function"
    },
    {
      "inputs": [
        {
          "internalType": "address",
          "name": "",
          "type": "address"
        }
      ],
      "name": "completedJobs",
      "outputs": [
        {
          "internalType": "uint256",
          "name": "",
          "type": "uint256"
        }
      ],
      "stateMutability": "view",
      "type": "function"
    },
    {
      "inputs": [
        {
          "internalType": "string",
          "name": "jobId",
          "type": "string"
        },
        {
          "internalType": "address",
          "name": "freelancer",
          "type": "address"
        },
        {
          "internalType": "uint256",
          "name": "deadline",
          "type": "uint256"
        }
      ],
      "name": "fundJob",
      "outputs": [],
      "stateMutability": "payable",
      "type": "function"
    },
    {
      "inputs": [
        {
          "internalType": "string",
          "name": "jobId",
          "type": "string"
        }
      ],
      "name": "getJob",
      "outputs": [
        {
          "internalType": "address",
          "name": "client",
          "type": "address"
        },
        {
          "internalType": "address",
          "name": "freelancer",
          "type": "address"
        },
        {
          "internalType": "uint256",
          "name": "amount",
          "type": "uint256"
        },
        {
          "internalType": "uint256",
          "name": "deadline",
          "type": "uint256"
        },
        {
          "internalType": "enum FreelanceEscrow.JobStatus",
          "name": "status",
          "type": "uint8"
        }
      ],
      "stateMutability": "view",
      "type": "function"
    },
    {
      "inputs": [],
      "name": "getPlatformFee",
      "outputs": [
        {
          "internalType": "uint256",
          "name": "",
          "type": "uint256"
        }
      ],
      "stateMutability": "view",
      "type": "function"
    },
    {
      "inputs": [
        {
          "internalType": "address",
          "name": "wallet",
          "type": "address"
        }
      ],
      "name": "getReputation",
      "outputs": [
        {
          "internalType": "uint256",
          "name": "points",
          "type": "uint256"
        },
        {
          "internalType": "uint256",
          "name": "jobsDone",
          "type": "uint256"
        },
        {
          "internalType": "uint256",
          "name": "earned",
          "type": "uint256"
        }
      ],
      "stateMutability": "view",
      "type": "function"
    },
    {
      "inputs": [
        {
          "internalType": "string",
          "name": "",
          "type": "string"
        }
      ],
      "name": "jobs",
      "outputs": [
        {
          "internalType": "string",
          "name": "jobId",
          "type": "string"
        },
        {
          "internalType": "address",
          "name": "client",
          "type": "address"
        },
        {
          "internalType": "address",
          "name": "freelancer",
          "type": "address"
        },
        {
          "internalType": "uint256",
          "name": "amount",
          "type": "uint256"
        },
        {
          "internalType": "uint256",
          "name": "deadline",
          "type": "uint256"
        },
        {
          "internalType": "enum FreelanceEscrow.JobStatus",
          "name": "status",
          "type": "uint8"
        }
      ],
      "stateMutability": "view",
      "type": "function"
    },
    {
      "inputs": [],
      "name": "owner",
      "outputs": [
        {
          "internalType": "address",
          "name": "",
          "type": "address"
        }
      ],
      "stateMutability": "view",
      "type": "function"
    },
    {
      "inputs": [],
      "name": "platformFeePercent",
      "outputs": [
        {
          "internalType": "uint256",
          "name": "",
          "type": "uint256"
        }
      ],
      "stateMutability": "view",
      "type": "function"
    },
    {
      "inputs": [
        {
          "internalType": "string",
          "name": "jobId",
          "type": "string"
        }
      ],
      "name": "raiseDispute",
      "outputs": [],
      "stateMutability": "nonpayable",
      "type": "function"
    },
    {
      "inputs": [
        {
          "internalType": "address",
          "name": "",
          "type": "address"
        }
      ],
      "name": "reputationPoints",
      "outputs": [
        {
          "internalType": "uint256",
          "name": "",
          "type": "uint256"
        }
      ],
      "stateMutability": "view",
      "type": "function"
    },
    {
      "inputs": [
        {
          "internalType": "address",
          "name": "",
          "type": "address"
        }
      ],
      "name": "totalEarned",
      "outputs": [
        {
          "internalType": "uint256",
          "name": "",
          "type": "uint256"
        }
      ],
      "stateMutability": "view",
      "type": "function"
    },
    {
      "inputs": [
        {
          "internalType": "uint256",
          "name": "newFee",
          "type": "uint256"
        }
      ],
      "name": "updateFee",
      "outputs": [],
      "stateMutability": "nonpayable",
      "type": "function"
    },
    {
      "stateMutability": "payable",
      "type": "receive"
    }
  ],
  "bytecode": "0x60a06040526001805534801561001457600080fd5b503373ffffffffffffffffffffffffffffffffffffffff1660808173ffffffffffffffffffffffffffffffffffffffff16815250506001600081905550608051612fa661007a600039600081816108c60152818161181b015261183f0152612fa66000f3fe6080604052600436106100e15760003560e01c806377e324071161007f5780639012c4a8116100595780639012c4a81461032f5780639c89a0e214610358578063b05e6f5a14610397578063ff80f7bd146103d957610121565b806377e32407146102985780638c639a85146102d95780638da5cb5b1461030457610121565b8063649aca4a116100bb578063649aca4a146101de5780636ea8bc101461021b5780636f1f8bab14610246578063725a3b4b1461026f57610121565b80630e1be6631461015c578063470b58e11461018557806355f1f310146101a157610121565b36610121576040517f08c379a000000000000000000000000000000000000000000000000000000000815260040161011890611bee565b60405180910390fd5b6040517f08c379a000000000000000000000000000000000000000000000000000000000815260040161015390611c80565b60405180910390fd5b34801561016857600080fd5b50610183600480360381019061017e9190611dfa565b610416565b005b61019f600480360381019061019a9190611ed7565b610a98565b005b3480156101ad57600080fd5b506101c860048036038101906101c39190611f46565b610ea1565b6040516101d59190611f82565b60405180910390f35b3480156101ea57600080fd5b5061020560048036038101906102009190611f46565b610eb9565b6040516102129190611f82565b60405180910390f35b34801561022757600080fd5b50610230610ed1565b60405161023d9190611f82565b60405180910390f35b34801561025257600080fd5b5061026d60048036038101906102689190611dfa565b610edb565b005b34801561027b57600080fd5b5061029660048036038101906102919190611dfa565b6112cc565b005b3480156102a457600080fd5b506102bf60048036038101906102ba9190611dfa565b6116bd565b6040516102d0959493929190612023565b60405180910390f35b3480156102e557600080fd5b506102ee611813565b6040516102fb9190611f82565b60405180910390f35b34801561031057600080fd5b50610319611819565b6040516103269190612076565b60405180910390f35b34801561033b57600080fd5b5061035660048036038101906103519190612091565b61183d565b005b34801561036457600080fd5b5061037f600480360381019061037a9190611f46565b61195a565b60405161038e939291906120be565b60405180910390f35b3480156103a357600080fd5b506103be60048036038101906103b99190611dfa565b611a2c565b6040516103d096959493929190612163565b60405180910390f35b3480156103e557600080fd5b5061040060048036038101906103fb9190611f46565b611b53565b60405161040d9190611f82565b60405180910390f35b60026000540361045b576040517f08c379a000000000000000000000000000000000000000000000000000000000815260040161045290612217565b60405180910390fd5b600260008190555080600073ffffffffffffffffffffffffffffffffffffffff1660058260405161048c9190612273565b908152602001604051809103902060010160009054906101000a900473ffffffffffffffffffffffffffffffffffffffff1673ffffffffffffffffffffffffffffffffffffffff1603610514576040517f08c379a000000000000000000000000000000000000000000000000000000000815260040161050b906122fc565b60405180910390fd5b816005816040516105259190612273565b908152602001604051809103902060010160009054906101000a900473ffffffffffffffffffffffffffffffffffffffff1673ffffffffffffffffffffffffffffffffffffffff163373ffffffffffffffffffffffffffffffffffffffff16146105c4576040517f08c379a00000000000000000000000000000000000000000000000000000000081526004016105bb9061238e565b60405180910390fd5b82600160058111156105d9576105d8611fac565b5b6005826040516105e99190612273565b908152602001604051809103902060050160009054906101000a900460ff16600581111561061a57610619611fac565b5b1461065a576040517f08c379a000000000000000000000000000000000000000000000000000000000815260040161065190612420565b60405180910390fd5b600060058560405161066c9190612273565b90815260200160405180910390209050600060646001548360030154610692919061246f565b61069c91906124e0565b905060008183600301546106b09190612511565b905060008360020160009054906101000a900473ffffffffffffffffffffffffffffffffffffffff16905060028460050160006101000a81548160ff0219169083600581111561070357610702611fac565b5b021790555060008460030181905550600a600260008373ffffffffffffffffffffffffffffffffffffffff1673ffffffffffffffffffffffffffffffffffffffff16815260200190815260200160002060008282546107629190612545565b925050819055506001600360008373ffffffffffffffffffffffffffffffffffffffff1673ffffffffffffffffffffffffffffffffffffffff16815260200190815260200160002060008282546107b99190612545565b9250508190555081600460008373ffffffffffffffffffffffffffffffffffffffff1673ffffffffffffffffffffffffffffffffffffffff168152602001908152602001600020600082825461080f9190612545565b9250508190555060008173ffffffffffffffffffffffffffffffffffffffff168360405161083c906125aa565b60006040518083038185875af1925050503d8060008114610879576040519150601f19603f3d011682016040523d82523d6000602084013e61087e565b606091505b50509050806108c2576040517f08c379a00000000000000000000000000000000000000000000000000000000081526004016108b990612631565b60405180910390fd5b60007f000000000000000000000000000000000000000000000000000000000000000073ffffffffffffffffffffffffffffffffffffffff1685604051610908906125aa565b60006040518083038185875af1925050503d8060008114610945576040519150601f19603f3d011682016040523d82523d6000602084013e61094a565b606091505b505090508061098e576040517f08c379a0000000000000000000000000000000000000000000000000000000008152600401610985906126c3565b60405180910390fd5b8273ffffffffffffffffffffffffffffffffffffffff168a6040516109b39190612273565b60405180910390207fa17f22c4fd82ad6e0bd3f3dd664e71bd6b87ac4f38e4e315f78fb13c0914120b86886040516109ec9291906126e3565b60405180910390a38273ffffffffffffffffffffffffffffffffffffffff167fe26efee9331371ada954ef88b0bffc72ee9abfcc4e40f6c8eafe4f63c69ebb69600a600260008773ffffffffffffffffffffffffffffffffffffffff1673ffffffffffffffffffffffffffffffffffffffff16815260200190815260200160002054604051610a7c929190612751565b60405180910390a2505050505050505050600160008190555050565b60003411610adb576040517f08c379a0000000000000000000000000000000000000000000000000000000008152600401610ad2906127ec565b60405180910390fd5b600073ffffffffffffffffffffffffffffffffffffffff168273ffffffffffffffffffffffffffffffffffffffff1603610b4a576040517f08c379a0000000000000000000000000000000000000000000000000000000008152600401610b419061287e565b60405180910390fd5b3373ffffffffffffffffffffffffffffffffffffffff168273ffffffffffffffffffffffffffffffffffffffff1603610bb8576040517f08c379a0000000000000000000000000000000000000000000000000000000008152600401610baf90612910565b60405180910390fd5b428111610bfa576040517f08c379a0000000000000000000000000000000000000000000000000000000008152600401610bf1906129a2565b60405180910390fd5b600073ffffffffffffffffffffffffffffffffffffffff16600584604051610c229190612273565b908152602001604051809103902060010160009054906101000a900473ffffffffffffffffffffffffffffffffffffffff1673ffffffffffffffffffffffffffffffffffffffff1614610caa576040517f08c379a0000000000000000000000000000000000000000000000000000000008152600401610ca190612a34565b60405180910390fd5b6040518060c001604052808481526020013373ffffffffffffffffffffffffffffffffffffffff1681526020018373ffffffffffffffffffffffffffffffffffffffff16815260200134815260200182815260200160016005811115610d1357610d12611fac565b5b815250600584604051610d269190612273565b90815260200160405180910390206000820151816000019081610d499190612c56565b5060208201518160010160006101000a81548173ffffffffffffffffffffffffffffffffffffffff021916908373ffffffffffffffffffffffffffffffffffffffff16021790555060408201518160020160006101000a81548173ffffffffffffffffffffffffffffffffffffffff021916908373ffffffffffffffffffffffffffffffffffffffff160217905550606082015181600301556080820151816004015560a08201518160050160006101000a81548160ff02191690836005811115610e1757610e16611fac565b5b02179055509050508173ffffffffffffffffffffffffffffffffffffffff163373ffffffffffffffffffffffffffffffffffffffff1684604051610e5b9190612273565b60405180910390207feeb7c616ac5ebd8f6fda7fd8f870d223dd9dc88c12a8913718073e1f9ec689e23485604051610e949291906126e3565b60405180910390a4505050565b60036020528060005260406000206000915090505481565b60046020528060005260406000206000915090505481565b6000600154905090565b600260005403610f20576040517f08c379a0000000000000000000000000000000000000000000000000000000008152600401610f1790612217565b60405180910390fd5b600260008190555080600073ffffffffffffffffffffffffffffffffffffffff16600582604051610f519190612273565b908152602001604051809103902060010160009054906101000a900473ffffffffffffffffffffffffffffffffffffffff1673ffffffffffffffffffffffffffffffffffffffff1603610fd9576040517f08c379a0000000000000000000000000000000000000000000000000000000008152600401610fd0906122fc565b60405180910390fd5b81600581604051610fea9190612273565b908152602001604051809103902060010160009054906101000a900473ffffffffffffffffffffffffffffffffffffffff1673ffffffffffffffffffffffffffffffffffffffff163373ffffffffffffffffffffffffffffffffffffffff1614611089576040517f08c379a00000000000000000000000000000000000000000000000000000000081526004016110809061238e565b60405180910390fd5b826001600581111561109e5761109d611fac565b5b6005826040516110ae9190612273565b908152602001604051809103902060050160009054906101000a900460ff1660058111156110df576110de611fac565b5b1461111f576040517f08c379a000000000000000000000000000000000000000000000000000000000815260040161111690612420565b60405180910390fd5b60006005856040516111319190612273565b9081526020016040518091039020905060008160030154905060008260010160009054906101000a900473ffffffffffffffffffffffffffffffffffffffff16905060038360050160006101000a81548160ff0219169083600581111561119b5761119a611fac565b5b02179055506000836003018190555060008173ffffffffffffffffffffffffffffffffffffffff16836040516111d0906125aa565b60006040518083038185875af1925050503d806000811461120d576040519150601f19603f3d011682016040523d82523d6000602084013e611212565b606091505b5050905080611256576040517f08c379a000000000000000000000000000000000000000000000000000000000815260040161124d90612d9a565b60405180910390fd5b8173ffffffffffffffffffffffffffffffffffffffff168860405161127b9190612273565b60405180910390207ffb91f89f53a28c63ca19bb4c90a6a7998e229f9b98c547d764daff6be0830627856040516112b29190611f82565b60405180910390a350505050505050600160008190555050565b600260005403611311576040517f08c379a000000000000000000000000000000000000000000000000000000000815260040161130890612217565b60405180910390fd5b600260008190555080600073ffffffffffffffffffffffffffffffffffffffff166005826040516113429190612273565b908152602001604051809103902060010160009054906101000a900473ffffffffffffffffffffffffffffffffffffffff1673ffffffffffffffffffffffffffffffffffffffff16036113ca576040517f08c379a00000000000000000000000000000000000000000000000000000000081526004016113c1906122fc565b60405180910390fd5b816005816040516113db9190612273565b908152602001604051809103902060010160009054906101000a900473ffffffffffffffffffffffffffffffffffffffff1673ffffffffffffffffffffffffffffffffffffffff163373ffffffffffffffffffffffffffffffffffffffff161461147a576040517f08c379a00000000000000000000000000000000000000000000000000000000081526004016114719061238e565b60405180910390fd5b826001600581111561148f5761148e611fac565b5b60058260405161149f9190612273565b908152602001604051809103902060050160009054906101000a900460ff1660058111156114d0576114cf611fac565b5b14611510576040517f08c379a000000000000000000000000000000000000000000000000000000000815260040161150790612420565b60405180910390fd5b60006005856040516115229190612273565b9081526020016040518091039020905060008160030154905060008260010160009054906101000a900473ffffffffffffffffffffffffffffffffffffffff16905060058360050160006101000a81548160ff0219169083600581111561158c5761158b611fac565b5b02179055506000836003018190555060008173ffffffffffffffffffffffffffffffffffffffff16836040516115c1906125aa565b60006040518083038185875af1925050503d80600081146115fe576040519150601f19603f3d011682016040523d82523d6000602084013e611603565b606091505b5050905080611647576040517f08c379a000000000000000000000000000000000000000000000000000000000815260040161163e90612e2c565b60405180910390fd5b8173ffffffffffffffffffffffffffffffffffffffff168860405161166c9190612273565b60405180910390207f07ec77f3cfaeaa255173222ef2a5734556ef8fd5717736b8ee32ac06a994f480856040516116a39190611f82565b60405180910390a350505050505050600160008190555050565b600080600080600085600073ffffffffffffffffffffffffffffffffffffffff166005826040516116ee9190612273565b908152602001604051809103902060010160009054906101000a900473ffffffffffffffffffffffffffffffffffffffff1673ffffffffffffffffffffffffffffffffffffffff1603611776576040517f08c379a000000000000000000000000000000000000000000000000000000000815260040161176d906122fc565b60405180910390fd5b60006005886040516117889190612273565b908152602001604051809103902090508060010160009054906101000a900473ffffffffffffffffffffffffffffffffffffffff168160020160009054906101000a900473ffffffffffffffffffffffffffffffffffffffff16826003015483600401548460050160009054906101000a900460ff1696509650965096509650505091939590929450565b60015481565b7f000000000000000000000000000000000000000000000000000000000000000081565b7f000000000000000000000000000000000000000000000000000000000000000073ffffffffffffffffffffffffffffffffffffffff163373ffffffffffffffffffffffffffffffffffffffff16146118cb576040517f08c379a00000000000000000000000000000000000000000000000000000000081526004016118c290612ebe565b60405180910390fd5b600581111561190f576040517f08c379a000000000000000000000000000000000000000000000000000000000815260040161190690612f50565b60405180910390fd5b60006001549050816001819055507f528d9479e9f9889a87a3c30c7f7ba537e5e59c4c85a37733b16e57c62df61302818360405161194e9291906126e3565b60405180910390a15050565b6000806000600260008573ffffffffffffffffffffffffffffffffffffffff1673ffffffffffffffffffffffffffffffffffffffff16815260200190815260200160002054600360008673ffffffffffffffffffffffffffffffffffffffff1673ffffffffffffffffffffffffffffffffffffffff16815260200190815260200160002054600460008773ffffffffffffffffffffffffffffffffffffffff1673ffffffffffffffffffffffffffffffffffffffff168152602001908152602001600020549250925092509193909250565b600581805160208101820180518482526020830160208501208183528095505050505050600091509050806000018054611a6590612a83565b80601f0160208091040260200160405190810160405280929190818152602001828054611a9190612a83565b8015611ade5780601f10611ab357610100808354040283529160200191611ade565b820191906000526020600020905b815481529060010190602001808311611ac157829003601f168201915b5050505050908060010160009054906101000a900473ffffffffffffffffffffffffffffffffffffffff16908060020160009054906101000a900473ffffffffffffffffffffffffffffffffffffffff16908060030154908060040154908060050160009054906101000a900460ff16905086565b60026020528060005260406000206000915090505481565b600082825260208201905092915050565b7f467265656c616e6365457363726f773a205573652066756e644a6f622829207460008201527f6f2073656e642045544800000000000000000000000000000000000000000000602082015250565b6000611bd8602a83611b6b565b9150611be382611b7c565b604082019050919050565b60006020820190508181036000830152611c0781611bcb565b9050919050565b7f467265656c616e6365457363726f773a2046756e6374696f6e206e6f7420666f60008201527f756e640000000000000000000000000000000000000000000000000000000000602082015250565b6000611c6a602383611b6b565b9150611c7582611c0e565b604082019050919050565b60006020820190508181036000830152611c9981611c5d565b9050919050565b6000604051905090565b600080fd5b600080fd5b600080fd5b600080fd5b6000601f19601f8301169050919050565b7f4e487b7100000000000000000000000000000000000000000000000000000000600052604160045260246000fd5b611d0782611cbe565b810181811067ffffffffffffffff82111715611d2657611d25611ccf565b5b80604052505050565b6000611d39611ca0565b9050611d458282611cfe565b919050565b600067ffffffffffffffff821115611d6557611d64611ccf565b5b611d6e82611cbe565b9050602081019050919050565b82818337600083830152505050565b6000611d9d611d9884611d4a565b611d2f565b905082815260208101848484011115611db957611db8611cb9565b5b611dc4848285611d7b565b509392505050565b600082601f830112611de157611de0611cb4565b5b8135611df1848260208601611d8a565b91505092915050565b600060208284031215611e1057611e0f611caa565b5b600082013567ffffffffffffffff811115611e2e57611e2d611caf565b5b611e3a84828501611dcc565b91505092915050565b600073ffffffffffffffffffffffffffffffffffffffff82169050919050565b6000611e6e82611e43565b9050919050565b611e7e81611e63565b8114611e8957600080fd5b50565b600081359050611e9b81611e75565b92915050565b6000819050919050565b611eb481611ea1565b8114611ebf57600080fd5b50565b600081359050611ed181611eab565b92915050565b600080600060608486031215611ef057611eef611caa565b5b600084013567ffffffffffffffff811115611f0e57611f0d611caf565b5b611f1a86828701611dcc565b9350506020611f2b86828701611e8c565b9250506040611f3c86828701611ec2565b9150509250925092565b600060208284031215611f5c57611f5b611caa565b5b6000611f6a84828501611e8c565b91505092915050565b611f7c81611ea1565b82525050565b6000602082019050611f976000830184611f73565b92915050565b611fa681611e63565b82525050565b7f4e487b7100000000000000000000000000000000000000000000000000000000600052602160045260246000fd5b60068110611fec57611feb611fac565b5b50565b6000819050611ffd82611fdb565b919050565b600061200d82611fef565b9050919050565b61201d81612002565b82525050565b600060a0820190506120386000830188611f9d565b6120456020830187611f9d565b6120526040830186611f73565b61205f6060830185611f73565b61206c6080830184612014565b9695505050505050565b600060208201905061208b6000830184611f9d565b92915050565b6000602082840312156120a7576120a6611caa565b5b60006120b584828501611ec2565b91505092915050565b60006060820190506120d36000830186611f73565b6120e06020830185611f73565b6120ed6040830184611f73565b949350505050565b600081519050919050565b60005b8381101561211e578082015181840152602081019050612103565b60008484015250505050565b6000612135826120f5565b61213f8185611b6b565b935061214f818560208601612100565b61215881611cbe565b840191505092915050565b600060c082019050818103600083015261217d818961212a565b905061218c6020830188611f9d565b6121996040830187611f9d565b6121a66060830186611f73565b6121b36080830185611f73565b6121c060a0830184612014565b979650505050505050565b7f5265656e7472616e637947756172643a207265656e7472616e742063616c6c00600082015250565b6000612201601f83611b6b565b915061220c826121cb565b602082019050919050565b60006020820190508181036000830152612230816121f4565b9050919050565b600081905092915050565b600061224d826120f5565b6122578185612237565b9350612267818560208601612100565b80840191505092915050565b600061227f8284612242565b915081905092915050565b7f467265656c616e6365457363726f773a204a6f6220646f6573206e6f7420657860008201527f6973740000000000000000000000000000000000000000000000000000000000602082015250565b60006122e6602383611b6b565b91506122f18261228a565b604082019050919050565b60006020820190508181036000830152612315816122d9565b9050919050565b7f467265656c616e6365457363726f773a204f6e6c792074686520636c69656e7460008201527f2063616e20706572666f726d207468697320616374696f6e0000000000000000602082015250565b6000612378603883611b6b565b91506123838261231c565b604082019050919050565b600060208201905081810360008301526123a78161236b565b9050919050565b7f467265656c616e6365457363726f773a204a6f62206973206e6f7420696e204660008201527f756e646564207374617465000000000000000000000000000000000000000000602082015250565b600061240a602b83611b6b565b9150612415826123ae565b604082019050919050565b60006020820190508181036000830152612439816123fd565b9050919050565b7f4e487b7100000000000000000000000000000000000000000000000000000000600052601160045260246000fd5b600061247a82611ea1565b915061248583611ea1565b925082820261249381611ea1565b915082820484148315176124aa576124a9612440565b5b5092915050565b7f4e487b7100000000000000000000000000000000000000000000000000000000600052601260045260246000fd5b60006124eb82611ea1565b91506124f683611ea1565b925082612506576125056124b1565b5b828204905092915050565b600061251c82611ea1565b915061252783611ea1565b925082820390508181111561253f5761253e612440565b5b92915050565b600061255082611ea1565b915061255b83611ea1565b925082820190508082111561257357612572612440565b5b92915050565b600081905092915050565b50565b6000612594600083612579565b915061259f82612584565b600082019050919050565b60006125b582612587565b9150819050919050565b7f467265656c616e6365457363726f773a204661696c656420746f20706179206660008201527f7265656c616e6365720000000000000000000000000000000000000000000000602082015250565b600061261b602983611b6b565b9150612626826125bf565b604082019050919050565b6000602082019050818103600083015261264a8161260e565b9050919050565b7f467265656c616e6365457363726f773a204661696c656420746f20706179207060008201527f6c6174666f726d20666565000000000000000000000000000000000000000000602082015250565b60006126ad602b83611b6b565b91506126b882612651565b604082019050919050565b600060208201905081810360008301526126dc816126a0565b9050919050565b60006040820190506126f86000830185611f73565b6127056020830184611f73565b9392505050565b6000819050919050565b6000819050919050565b600061273b6127366127318461270c565b612716565b611ea1565b9050919050565b61274b81612720565b82525050565b60006040820190506127666000830185612742565b6127736020830184611f73565b9392505050565b7f467265656c616e6365457363726f773a204d7573742073656e6420455448207460008201527f6f2066756e6420746865206a6f62000000000000000000000000000000000000602082015250565b60006127d6602e83611b6b565b91506127e18261277a565b604082019050919050565b60006020820190508181036000830152612805816127c9565b9050919050565b7f467265656c616e6365457363726f773a20496e76616c696420667265656c616e60008201527f6365722061646472657373000000000000000000000000000000000000000000602082015250565b6000612868602b83611b6b565b91506128738261280c565b604082019050919050565b600060208201905081810360008301526128978161285b565b9050919050565b7f467265656c616e6365457363726f773a20436c69656e742063616e6e6f74206260008201527f652074686520667265656c616e63657200000000000000000000000000000000602082015250565b60006128fa603083611b6b565b91506129058261289e565b604082019050919050565b60006020820190508181036000830152612929816128ed565b9050919050565b7f467265656c616e6365457363726f773a20446561646c696e65206d757374206260008201527f6520696e20746865206675747572650000000000000000000000000000000000602082015250565b600061298c602f83611b6b565b915061299782612930565b604082019050919050565b600060208201905081810360008301526129bb8161297f565b9050919050565b7f467265656c616e6365457363726f773a204a6f6220616c72656164792066756e60008201527f6465640000000000000000000000000000000000000000000000000000000000602082015250565b6000612a1e602383611b6b565b9150612a29826129c2565b604082019050919050565b60006020820190508181036000830152612a4d81612a11565b9050919050565b7f4e487b7100000000000000000000000000000000000000000000000000000000600052602260045260246000fd5b60006002820490506001821680612a9b57607f821691505b602082108103612aae57612aad612a54565b5b50919050565b60008190508160005260206000209050919050565b60006020601f8301049050919050565b600082821b905092915050565b600060088302612b167fffffffffffffffffffffffffffffffffffffffffffffffffffffffffffffffff82612ad9565b612b208683612ad9565b95508019841693508086168417925050509392505050565b6000612b53612b4e612b4984611ea1565b612716565b611ea1565b9050919050565b6000819050919050565b612b6d83612b38565b612b81612b7982612b5a565b848454612ae6565b825550505050565b600090565b612b96612b89565b612ba1818484612b64565b505050565b5b81811015612bc557612bba600082612b8e565b600181019050612ba7565b5050565b601f821115612c0a57612bdb81612ab4565b612be484612ac9565b81016020851015612bf3578190505b612c07612bff85612ac9565b830182612ba6565b50505b505050565b600082821c905092915050565b6000612c2d60001984600802612c0f565b1980831691505092915050565b6000612c468383612c1c565b9150826002028217905092915050565b612c5f826120f5565b67ffffffffffffffff811115612c7857612c77611ccf565b5b612c828254612a83565b612c8d828285612bc9565b600060209050601f831160018114612cc05760008415612cae578287015190505b612cb88582612c3a565b865550612d20565b601f198416612cce86612ab4565b60005b82811015612cf657848901518255600182019150602085019450602081019050612cd1565b86831015612d135784890151612d0f601f891682612c1c565b8355505b6001600288020188555050505b505050505050565b7f467265656c616e6365457363726f773a20526566756e6420746f20636c69656e60008201527f74206661696c6564000000000000000000000000000000000000000000000000602082015250565b6000612d84602883611b6b565b9150612d8f82612d28565b604082019050919050565b60006020820190508181036000830152612db381612d77565b9050919050565b7f467265656c616e6365457363726f773a204469737075746520726566756e642060008201527f6661696c65640000000000000000000000000000000000000000000000000000602082015250565b6000612e16602683611b6b565b9150612e2182612dba565b604082019050919050565b60006020820190508181036000830152612e4581612e09565b9050919050565b7f467265656c616e6365457363726f773a204f6e6c7920706c6174666f726d206f60008201527f776e65722063616e20706572666f726d207468697320616374696f6e00000000602082015250565b6000612ea8603c83611b6b565b9150612eb382612e4c565b604082019050919050565b60006020820190508181036000830152612ed781612e9b565b9050919050565b7f467265656c616e6365457363726f773a204665652063616e6e6f74206578636560008201527f6564203525000000000000000000000000000000000000000000000000000000602082015250565b6000612f3a602583611b6b565b9150612f4582612ede565b604082019050919050565b60006020820190508181036000830152612f6981612f2d565b905091905056fea264697066735822122093e02dcd410638cb5eafed12e2def3ff2c963f9ea699f166e20b4ae60153149b64736f6c63430008180033",
  "linkReferences": {},
  "deployedLinkReferences": {}
}